:020000040800F2
:1000000000040020C1010008C9010008CB0100085C
:10001000CD010008CF010008D10100080000000058
:10002000000000000000000000000000D3010008F4
:10003000D501000800000000D7010008D901000820
:10004000DB010008DB010008DB010008DB01000820
:10005000DB010008DB010008DB010008DB01000810
:10006000DB010008DB010008DB010008DB01000800
:10007000DB010008DB010008DB010008DB010008F0
:10008000DB010008DB010008DB010008DB010008E0
:10009000DB010008DB010008DB010008DB010008D0
:1000A000DB010008DB010008DB010008DB010008C0
:1000B000DB010008DB010008DB010008DB010008B0
:1000C000DB010008DB010008DB010008DB010008A0
:1000D000DB010008DB010008DB010008DB01000890
:1000E000DB010008DB010008DB010008DB01000880
:1000F000DB010008DB010008DB010008DB01000870
:10010000DB010008DB010008DB010008DB0100085F
:10011000DB010008DB010008DB010008DB0100084F
:10012000DB010008DB010008DB010008DB0100083F
:10013000DB010008DB010008DB010008DB0100082F
:10014000DB010008DB010008DB010008DB0100081F
:10015000DB010008DB010008DB010008DB0100080F
:10016000DB010008DB010008DB010008DB010008FF
:10017000DB010008DB010008DB010008DB010008EF
:10018000DB010008DB010008DB010008DB010008DF
:10019000DB010008DB010008DB010008DB010008CF
:1001A000DB010008DB010008DB010008DFF80CD0F0
:1001B00000F018F800480047210300080004002060
:1001C0000648804706480047FEE7FEE7FEE7FEE7F1
:1001D000FEE7FEE7FEE7FEE7FEE7FEE701030008B5
:1001E000AD010008064C074D06E0E06840F0010351
:1001F00094E8070098471034AC42F6D3FFF7DAFFD3
:100200004803000858030008F0B50A4600210023FF
:10021000002400BF3CE0012505FA01F3156805EA5A
:1002200003049C4233D14F000326BE400568B5430A
:10023000056015794E00B5400668354305604F00EE
:100240000326BE40C568B543C560D5794E00B540AC
:10025000C6683543C5601579012D02D01579022D88
:100260000BD14F000326BE408568B5438560957964
:100270004E00B54086683543856001258D4046684F
:10028000AE43466055798D4046682E434660491C12
:100290001029C0D3F0BD418370470183704700002F
:1002A0001CB501208DF8040002208DF80600012005
:1002B0008DF807008002009069461048FFF7A4FF00
:1002C0004FF480610D48FFF7E8FF4FF400600090A5
:1002D00069460A48FFF798FF4FF400610748FFF7A7
:1002E000DCFF4FF48050009069460448FFF78CFF14
:1002F0004FF480510148FFF7D0FF1CBD001C0240A5
:10030000704702E008C8121F08C1002AFAD17047DE
:100310007047002001E001C1121F002AFBD1704785
:100320000748006840F0800005490860FFF7B8FF03
:100330004FF480510348FFF7AEFF00BFFEE7000017
:1003400030380240001C0240580300080000002022
:08035000000400001203000884
:04000005080001C12D
:00000001FF
